{
  "abi": [
    {
      "inputs": [],
      "stateMutability": "nonpayable",
      "type": "constructor"
    },
    {
      "anonymous": false,
      "inputs": [
        {
          "indexed": true,
          "internalType": "address",
          "name": "owner",
          "type": "address"
        },
        {
          "indexed": true,
          "internalType": "address",
          "name": "approved",
          "type": "address"
        },
        {
          "indexed": true,
          "internalType": "uint256",
          "name": "tokenId",
          "type": "uint256"
        }
      ],
      "name": "Approval",
      "type": "event"
    },
    {
      "anonymous": false,
      "inputs": [
        {
          "indexed": true,
          "internalType": "address",
          "name": "owner",
          "type": "address"
        },
        {
          "indexed": true,
          "internalType": "address",
          "name": "operator",
          "type": "address"
        },
        {
          "indexed": false,
          "internalType": "bool",
          "name": "approved",
          "type": "bool"
        }
      ],
      "name": "ApprovalForAll",
      "type": "event"
    },
    {
      "anonymous": false,
      "inputs": [
        {
          "indexed": true,
          "internalType": "address",
          "name": "from",
          "type": "address"
        },
        {
          "indexed": true,
          "internalType": "address",
          "name": "to",
          "type": "address"
        },
        {
          "indexed": true,
          "internalType": "uint256",
          "name": "tokenId",
          "type": "uint256"
        }
      ],
      "name": "Transfer",
      "type": "event"
    },
    {
      "inputs": [
        {
          "internalType": "address",
          "name": "to",
          "type": "address"
        },
        {
          "internalType": "uint256",
          "name": "tokenId",
          "type": "uint256"
        }
      ],
      "name": "approve",
      "outputs": [],
      "stateMutability": "nonpayable",
      "type": "function"
    },
    {
      "inputs": [
        {
          "internalType": "address",
          "name": "owner",
          "type": "address"
        }
      ],
      "name": "balanceOf",
      "outputs": [
        {
          "internalType": "uint256",
          "name": "",
          "type": "uint256"
        }
      ],
      "stateMutability": "view",
      "type": "function"
    },
    {
      "inputs": [],
      "name": "collectionName",
      "outputs": [
        {
          "internalType": "string",
          "name": "",
          "type": "string"
        }
      ],
      "stateMutability": "view",
      "type": "function"
    },
    {
      "inputs": [],
      "name": "collectionSymbol",
      "outputs": [
        {
          "internalType": "string",
          "name": "",
          "type": "string"
        }
      ],
      "stateMutability": "view",
      "type": "function"
    },
    {
      "inputs": [
        {
          "internalType": "string",
          "name": "name",
          "type": "string"
        }
      ],
      "name": "createCelestiaNameNFT",
      "outputs": [
        {
          "internalType": "uint256",
          "name": "",
          "type": "uint256"
        }
      ],
      "stateMutability": "nonpayable",
      "type": "function"
    },
    {
      "inputs": [
        {
          "internalType": "uint256",
          "name": "tokenId",
          "type": "uint256"
        }
      ],
      "name": "getApproved",
      "outputs": [
        {
          "internalType": "address",
          "name": "",
          "type": "address"
        }
      ],
      "stateMutability": "view",
      "type": "function"
    },
    {
      "inputs": [
        {
          "internalType": "address",
          "name": "owner",
          "type": "address"
        },
        {
          "internalType": "address",
          "name": "operator",
          "type": "address"
        }
      ],
      "name": "isApprovedForAll",
      "outputs": [
        {
          "internalType": "bool",
          "name": "",
          "type": "bool"
        }
      ],
      "stateMutability": "view",
      "type": "function"
    },
    {
      "inputs": [],
      "name": "name",
      "outputs": [
        {
          "internalType": "string",
          "name": "",
          "type": "string"
        }
      ],
      "stateMutability": "view",
      "type": "function"
    },
    {
      "inputs": [
        {
          "internalType": "uint256",
          "name": "tokenId",
          "type": "uint256"
        }
      ],
      "name": "ownerOf",
      "outputs": [
        {
          "internalType": "address",
          "name": "",
          "type": "address"
        }
      ],
      "stateMutability": "view",
      "type": "function"
    },
    {
      "inputs": [
        {
          "internalType": "address",
          "name": "from",
          "type": "address"
        },
        {
          "internalType": "address",
          "name": "to",
          "type": "address"
        },
        {
          "internalType": "uint256",
          "name": "tokenId",
          "type": "uint256"
        }
      ],
      "name": "safeTransferFrom",
      "outputs": [],
      "stateMutability": "nonpayable",
      "type": "function"
    },
    {
      "inputs": [
        {
          "internalType": "address",
          "name": "from",
          "type": "address"
        },
        {
          "internalType": "address",
          "name": "to",
          "type": "address"
        },
        {
          "internalType": "uint256",
          "name": "tokenId",
          "type": "uint256"
        },
        {
          "internalType": "bytes",
          "name": "data",
          "type": "bytes"
        }
      ],
      "name": "safeTransferFrom",
      "outputs": [],
      "stateMutability": "nonpayable",
      "type": "function"
    },
    {
      "inputs": [
        {
          "internalType": "address",
          "name": "operator",
          "type": "address"
        },
        {
          "internalType": "bool",
          "name": "approved",
          "type": "bool"
        }
      ],
      "name": "setApprovalForAll",
      "outputs": [],
      "stateMutability": "nonpayable",
      "type": "function"
    },
    {
      "inputs": [
        {
          "internalType": "bytes4",
          "name": "interfaceId",
          "type": "bytes4"
        }
      ],
      "name": "supportsInterface",
      "outputs": [
        {
          "internalType": "bool",
          "name": "",
          "type": "bool"
        }
      ],
      "stateMutability": "view",
      "type": "function"
    },
    {
      "inputs": [],
      "name": "symbol",
      "outputs": [
        {
          "internalType": "string",
          "name": "",
          "type": "string"
        }
      ],
      "stateMutability": "view",
      "type": "function"
    },
    {
      "inputs": [
        {
          "internalType": "uint256",
          "name": "tokenId",
          "type": "uint256"
        }
      ],
      "name": "tokenURI",
      "outputs": [
        {
          "internalType": "string",
          "name": "",
          "type": "string"
        }
      ],
      "stateMutability": "view",
      "type": "function"
    },
    {
      "inputs": [
        {
          "internalType": "address",
          "name": "from",
          "type": "address"
        },
        {
          "internalType": "address",
          "name": "to",
          "type": "address"
        },
        {
          "internalType": "uint256",
          "name": "tokenId",
          "type": "uint256"
        }
      ],
      "name": "transferFrom",
      "outputs": [],
      "stateMutability": "nonpayable",
      "type": "function"
    }
  ],
  "bytecode": {
    "object": "0x6101e060405261013060808181529062001e7760a039600a9062000024908262000226565b503480156200003257600080fd5b506040518060400160405280600f81526020016e10d95b195cdd1a5853985b59539195608a1b815250604051806040016040528060048152602001631153919560e21b815250816000908162000089919062000226565b50600162000098828262000226565b50620000a6915050620000d6565b600890620000b5908262000226565b50620000c062000170565b600990620000cf908262000226565b50620002f2565b606060008054620000e79062000197565b80601f0160208091040260200160405190810160405280929190818152602001828054620001159062000197565b8015620001665780601f106200013a5761010080835404028352916020019162000166565b820191906000526020600020905b8154815290600101906020018083116200014857829003601f168201915b5050505050905090565b606060018054620000e79062000197565b634e487b7160e01b600052604160045260246000fd5b600181811c90821680620001ac57607f821691505b602082108103620001cd57634e487b7160e01b600052602260045260246000fd5b50919050565b601f8211156200022157600081815260208120601f850160051c81016020861015620001fc5750805b601f850160051c820191505b818110156200021d5782815560010162000208565b5050505b505050565b81516001600160401b0381111562000242576200024262000181565b6200025a8162000253845462000197565b84620001d3565b602080601f831160018114620002925760008415620002795750858301515b600019600386901b1c1916600185901b1785556200021d565b600085815260208120601f198616915b82811015620002c357888601518255948401946001909101908401620002a2565b5085821015620002e25787850151600019600388901b60f8161c191681555b5050505050600190811b01905550565b611b7580620003026000396000f3fe608060405234801561001057600080fd5b50600436106101005760003560e01c806370a0823111610097578063b88d4fde11610066578063b88d4fde14610212578063c87b56dd14610225578063e5326ab114610238578063e985e9c51461024057600080fd5b806370a08231146101c35780637cc35222146101e457806395d89b41146101f7578063a22cb465146101ff57600080fd5b806323b872dd116100d357806323b872dd146101825780632f39352a1461019557806342842e0e1461019d5780636352211e146101b057600080fd5b806301ffc9a71461010557806306fdde031461012d578063081812fc14610142578063095ea7b31461016d575b600080fd5b610118610113366004611317565b610253565b60405190151581526020015b60405180910390f35b6101356102a5565b6040516101249190611384565b610155610150366004611397565b610337565b6040516001600160a01b039091168152602001610124565b61018061017b3660046113cc565b61035e565b005b6101806101903660046113f6565b610478565b6101356104a9565b6101806101ab3660046113f6565b610537565b6101556101be366004611397565b610552565b6101d66101d1366004611432565b6105b2565b604051908152602001610124565b6101d66101f23660046114d9565b610638565b610135610718565b61018061020d366004611522565b610727565b61018061022036600461155e565b610736565b610135610233366004611397565b61076e565b61013561087e565b61011861024e3660046115da565b61088b565b60006001600160e01b031982166380ac58cd60e01b148061028457506001600160e01b03198216635b5e139f60e01b145b8061029f57506301ffc9a760e01b6001600160e01b03198316145b92915050565b6060600080546102b49061160d565b80601f01602080910402602001604051908101604052809291908181526020018280546102e09061160d565b801561032d5780601f106103025761010080835404028352916020019161032d565b820191906000526020600020905b81548152906001019060200180831161031057829003601f168201915b5050505050905090565b6000610342826108b9565b506000908152600460205260409020546001600160a01b031690565b600061036982610552565b9050806001600160a01b0316836001600160a01b0316036103db5760405162461bcd60e51b815260206004820152602160248201527f4552433732313a20617070726f76616c20746f2063757272656e74206f776e656044820152603960f91b60648201526084015b60405180910390fd5b336001600160a01b03821614806103f757506103f7813361088b565b6104695760405162461bcd60e51b815260206004820152603d60248201527f4552433732313a20617070726f76652063616c6c6572206973206e6f7420746f60448201527f6b656e206f776e6572206f7220617070726f76656420666f7220616c6c00000060648201526084016103d2565b610473838361091b565b505050565b6104823382610989565b61049e5760405162461bcd60e51b81526004016103d290611647565b6104738383836109e7565b600980546104b69061160d565b80601f01602080910402602001604051908101604052809291908181526020018280546104e29061160d565b801561052f5780601f106105045761010080835404028352916020019161052f565b820191906000526020600020905b81548152906001019060200180831161051257829003601f168201915b505050505081565b61047383838360405180602001604052806000815250610736565b6000818152600260205260408120546001600160a01b03168061029f5760405162461bcd60e51b8152602060048201526018602482015277115490cdcc8c4e881a5b9d985b1a59081d1bdad95b88125160421b60448201526064016103d2565b60006001600160a01b03821661061c5760405162461bcd60e51b815260206004820152602960248201527f4552433732313a2061646472657373207a65726f206973206e6f7420612076616044820152683634b21037bbb732b960b91b60648201526084016103d2565b506001600160a01b031660009081526003602052604090205490565b60008061064460075490565b90506000836040516020016106599190611694565b60405160208183030381529060405290506000600a856040516020016106809291906116b0565b604051602081830303815290604052905060006106c5836106a084610b4b565b6040516020016106b192919061174f565b604051602081830303815290604052610b4b565b90506000816040516020016106da919061182a565b60405160208183030381529060405290506106f53386610cb5565b6106ff8582610ccf565b61070d600780546001019055565b509295945050505050565b6060600180546102b49061160d565b610732338383610d62565b5050565b6107403383610989565b61075c5760405162461bcd60e51b81526004016103d290611647565b61076884848484610e30565b50505050565b6060610779826108b9565b600082815260066020526040812080546107929061160d565b80601f01602080910402602001604051908101604052809291908181526020018280546107be9061160d565b801561080b5780601f106107e05761010080835404028352916020019161080b565b820191906000526020600020905b8154815290600101906020018083116107ee57829003601f168201915b50505050509050600061082960408051602081019091526000815290565b9050805160000361083b575092915050565b81511561086d57808260405160200161085592919061186f565b60405160208183030381529060405292505050919050565b61087684610e63565b949350505050565b600880546104b69061160d565b6001600160a01b03918216600090815260056020908152604080832093909416825291909152205460ff1690565b6000818152600260205260409020546001600160a01b03166109185760405162461bcd60e51b8152602060048201526018602482015277115490cdcc8c4e881a5b9d985b1a59081d1bdad95b88125160421b60448201526064016103d2565b50565b600081815260046020526040902080546001600160a01b0319166001600160a01b038416908117909155819061095082610552565b6001600160a01b03167f8c5be1e5ebec7d5bd14f71427d1e84f3dd0314c0f7b2291e5b200ac8c7c3b92560405160405180910390a45050565b60008061099583610552565b9050806001600160a01b0316846001600160a01b031614806109bc57506109bc818561088b565b806108765750836001600160a01b03166109d584610337565b6001600160a01b031614949350505050565b826001600160a01b03166109fa82610552565b6001600160a01b031614610a205760405162461bcd60e51b81526004016103d29061189e565b6001600160a01b038216610a825760405162461bcd60e51b8152602060048201526024808201527f4552433732313a207472616e7366657220746f20746865207a65726f206164646044820152637265737360e01b60648201526084016103d2565b826001600160a01b0316610a9582610552565b6001600160a01b031614610abb5760405162461bcd60e51b81526004016103d29061189e565b600081815260046020908152604080832080546001600160a01b03199081169091556001600160a01b0387811680865260038552838620805460001901905590871680865283862080546001019055868652600290945282852080549092168417909155905184937fddf252ad1be2c89b69c2b068fc378daa952ba7f163c4a11628f55a4df523b3ef91a4505050565b80516060906000819003610b6f575050604080516020810190915260008152919050565b60006003610b7e8360026118f9565b610b88919061190c565b610b9390600461192e565b90506000610ba28260206118f9565b67ffffffffffffffff811115610bba57610bba61144d565b6040519080825280601f01601f191660200182016040528015610be4576020820181803683370190505b5090506000604051806060016040528060408152602001611b00604091399050600181016020830160005b86811015610c70576003818a01810151603f601282901c8116860151600c83901c8216870151600684901c831688015192909316870151600891821b60ff94851601821b92841692909201901b91160160e01b835260049092019101610c0f565b506003860660018114610c8a5760028114610c9b57610ca7565b613d3d60f01b600119830152610ca7565b603d60f81b6000198301525b505050918152949350505050565b610732828260405180602001604052806000815250610ed7565b6000828152600260205260409020546001600160a01b0316610d4a5760405162461bcd60e51b815260206004820152602e60248201527f45524337323155524953746f726167653a2055524920736574206f66206e6f6e60448201526d32bc34b9ba32b73a103a37b5b2b760911b60648201526084016103d2565b60008281526006602052604090206104738282611993565b816001600160a01b0316836001600160a01b031603610dc35760405162461bcd60e51b815260206004820152601960248201527f4552433732313a20617070726f766520746f2063616c6c65720000000000000060448201526064016103d2565b6001600160a01b03838116600081815260056020908152604080832094871680845294825291829020805460ff191686151590811790915591519182527f17307eab39ab6107e8899845ad3d59bd9653f200f220920489ca2b5937696c31910160405180910390a3505050565b610e3b8484846109e7565b610e4784848484610f0a565b6107685760405162461bcd60e51b81526004016103d290611a53565b6060610e6e826108b9565b6000610e8560408051602081019091526000815290565b90506000815111610ea55760405180602001604052806000815250610ed0565b80610eaf8461100b565b604051602001610ec092919061186f565b6040516020818303038152906040525b9392505050565b610ee1838361109e565b610eee6000848484610f0a565b6104735760405162461bcd60e51b81526004016103d290611a53565b60006001600160a01b0384163b1561100057604051630a85bd0160e11b81526001600160a01b0385169063150b7a0290610f4e903390899088908890600401611aa5565b6020604051808303816000875af1925050508015610f89575060408051601f3d908101601f19168201909252610f8691810190611ae2565b60015b610fe6573d808015610fb7576040519150601f19603f3d011682016040523d82523d6000602084013e610fbc565b606091505b508051600003610fde5760405162461bcd60e51b81526004016103d290611a53565b805181602001fd5b6001600160e01b031916630a85bd0160e11b149050610876565b506001949350505050565b6060600061101883611229565b600101905060008167ffffffffffffffff8111156110385761103861144d565b6040519080825280601f01601f191660200182016040528015611062576020820181803683370190505b5090508181016020015b600019016f181899199a1a9b1b9c1cb0b131b232b360811b600a86061a8153600a850494508461106c57509392505050565b6001600160a01b0382166110f45760405162461bcd60e51b815260206004820181905260248201527f4552433732313a206d696e7420746f20746865207a65726f206164647265737360448201526064016103d2565b6000818152600260205260409020546001600160a01b0316156111595760405162461bcd60e51b815260206004820152601c60248201527f4552433732313a20746f6b656e20616c7265616479206d696e7465640000000060448201526064016103d2565b6000818152600260205260409020546001600160a01b0316156111be5760405162461bcd60e51b815260206004820152601c60248201527f4552433732313a20746f6b656e20616c7265616479206d696e7465640000000060448201526064016103d2565b6001600160a01b038216600081815260036020908152604080832080546001019055848352600290915280822080546001600160a01b0319168417905551839291907fddf252ad1be2c89b69c2b068fc378daa952ba7f163c4a11628f55a4df523b3ef908290a45050565b60008072184f03e93ff9f4daa797ed6e38ed64bf6a1f0160401b83106112685772184f03e93ff9f4daa797ed6e38ed64bf6a1f0160401b830492506040015b6d04ee2d6d415b85acef81000000008310611294576d04ee2d6d415b85acef8100000000830492506020015b662386f26fc1000083106112b257662386f26fc10000830492506010015b6305f5e10083106112ca576305f5e100830492506008015b61271083106112de57612710830492506004015b606483106112f0576064830492506002015b600a831061029f5760010192915050565b6001600160e01b03198116811461091857600080fd5b60006020828403121561132957600080fd5b8135610ed081611301565b60005b8381101561134f578181015183820152602001611337565b50506000910152565b60008151808452611370816020860160208601611334565b601f01601f19169290920160200192915050565b602081526000610ed06020830184611358565b6000602082840312156113a957600080fd5b5035919050565b80356001600160a01b03811681146113c757600080fd5b919050565b600080604083850312156113df57600080fd5b6113e8836113b0565b946020939093013593505050565b60008060006060848603121561140b57600080fd5b611414846113b0565b9250611422602085016113b0565b9150604084013590509250925092565b60006020828403121561144457600080fd5b610ed0826113b0565b634e487b7160e01b600052604160045260246000fd5b600067ffffffffffffffff8084111561147e5761147e61144d565b604051601f8501601f19908116603f011681019082821181831017156114a6576114a661144d565b816040528093508581528686860111156114bf57600080fd5b858560208301376000602087830101525050509392505050565b6000602082840312156114eb57600080fd5b813567ffffffffffffffff81111561150257600080fd5b8201601f8101841361151357600080fd5b61087684823560208401611463565b6000806040838503121561153557600080fd5b61153e836113b0565b91506020830135801515811461155357600080fd5b809150509250929050565b6000806000806080858703121561157457600080fd5b61157d856113b0565b935061158b602086016113b0565b925060408501359150606085013567ffffffffffffffff8111156115ae57600080fd5b8501601f810187136115bf57600080fd5b6115ce87823560208401611463565b91505092959194509250565b600080604083850312156115ed57600080fd5b6115f6836113b0565b9150611604602084016113b0565b90509250929050565b600181811c9082168061162157607f821691505b60208210810361164157634e487b7160e01b600052602260045260246000fd5b50919050565b6020808252602d908201527f4552433732313a2063616c6c6572206973206e6f7420746f6b656e206f776e6560408201526c1c881bdc88185c1c1c9bdd9959609a1b606082015260800190565b600082516116a6818460208701611334565b9190910192915050565b60008084546116be8161160d565b600182811680156116d657600181146116eb5761171a565b60ff198416875282151583028701945061171a565b8860005260208060002060005b858110156117115781548a8201529084019082016116f8565b50505082870194505b50505050835161172e818360208801611334565b6c1e17ba32bc3a1f1e17b9bb339f60991b9101908152600d01949350505050565b693d913730b6b2911d101160b11b8152825160009061177581600a850160208801611334565b7f222c20226465736372697074696f6e223a20224120686967686c79206163636c600a918401918201527f61696d656420636f6c6c656374696f6e20457465726e616c2057617272696f72602a8201527f73222c2022696d616765223a2022646174613a696d6167652f7376672b786d6c604a820152670ed8985cd94d8d0b60c21b606a820152835161180f816072840160208801611334565b61227d60f01b60729290910191820152607401949350505050565b7f646174613a6170706c69636174696f6e2f6a736f6e3b6261736536342c00000081526000825161186281601d850160208701611334565b91909101601d0192915050565b60008351611881818460208801611334565b835190830190611895818360208801611334565b01949350505050565b60208082526025908201527f4552433732313a207472616e736665722066726f6d20696e636f72726563742060408201526437bbb732b960d91b606082015260800190565b634e487b7160e01b600052601160045260246000fd5b8082018082111561029f5761029f6118e3565b60008261192957634e487b7160e01b600052601260045260246000fd5b500490565b808202811582820484141761029f5761029f6118e3565b601f82111561047357600081815260208120601f850160051c8101602086101561196c5750805b601f850160051c820191505b8181101561198b57828155600101611978565b505050505050565b815167ffffffffffffffff8111156119ad576119ad61144d565b6119c1816119bb845461160d565b84611945565b602080601f8311600181146119f657600084156119de5750858301515b600019600386901b1c1916600185901b17855561198b565b600085815260208120601f198616915b82811015611a2557888601518255948401946001909101908401611a06565b5085821015611a435787850151600019600388901b60f8161c191681555b5050505050600190811b01905550565b60208082526032908201527f4552433732313a207472616e7366657220746f206e6f6e20455243373231526560408201527131b2b4bb32b91034b6b83632b6b2b73a32b960711b606082015260800190565b6001600160a01b0385811682528416602082015260408101839052608060608201819052600090611ad890830184611358565b9695505050505050565b600060208284031215611af457600080fd5b8151610ed08161130156fe4142434445464748494a4b4c4d4e4f505152535455565758595a6162636465666768696a6b6c6d6e6f707172737475767778797a303132333435363738392b2fa2646970667358221220e3ba427203f4383575143f93c926a19eb7794a30494420c6f1749214d6d6d18d64736f6c634300081300333c73766720786d6c6e733d27687474703a2f2f7777772e77332e6f72672f323030302f73766727207072657365727665417370656374526174696f3d27784d696e594d696e206d656574272076696577426f783d273020302033353020333530273e3c7374796c653e2e62617365207b2066696c6c3a2077686974653b20666f6e742d66616d696c793a2073657269663b20666f6e742d73697a653a20323470783b207d3c2f7374796c653e3c726563742077696474683d273130302527206865696768743d2731303025272066696c6c3d27707572706c6527202f3e3c7465787420783d273530252720793d273530252720636c6173733d27626173652720646f6d696e616e742d626173656c696e653d276d6964646c652720746578742d616e63686f723d276d6964646c65273e",
    "linkReferences": {}
  },
  "methodIdentifiers": {
    "approve(address,uint256)": "095ea7b3",
    "balanceOf(address)": "70a08231",
    "collectionName()": "e5326ab1",
    "collectionSymbol()": "2f39352a",
    "createCelestiaNameNFT(string)": "7cc35222",
    "getApproved(uint256)": "081812fc",
    "isApprovedForAll(address,address)": "e985e9c5",
    "name()": "06fdde03",
    "ownerOf(uint256)": "6352211e",
    "safeTransferFrom(address,address,uint256)": "42842e0e",
    "safeTransferFrom(address,address,uint256,bytes)": "b88d4fde",
    "setApprovalForAll(address,bool)": "a22cb465",
    "supportsInterface(bytes4)": "01ffc9a7",
    "symbol()": "95d89b41",
    "tokenURI(uint256)": "c87b56dd",
    "transferFrom(address,address,uint256)": "23b872dd"
  },
  "id": 25
}