{
  "abi": [
    {
      "inputs": [
        {
          "internalType": "string",
          "name": "_name",
          "type": "string"
        }
      ],
      "stateMutability": "nonpayable",
      "type": "constructor"
    },
    {
      "anonymous": false,
      "inputs": [
        {
          "indexed": false,
          "internalType": "uint256",
          "name": "id",
          "type": "uint256"
        },
        {
          "indexed": false,
          "internalType": "string",
          "name": "title",
          "type": "string"
        },
        {
          "indexed": false,
          "internalType": "string",
          "name": "hash",
          "type": "string"
        }
      ],
      "name": "PostCreated",
      "type": "event"
    },
    {
      "anonymous": false,
      "inputs": [
        {
          "indexed": false,
          "internalType": "uint256",
          "name": "id",
          "type": "uint256"
        },
        {
          "indexed": false,
          "internalType": "string",
          "name": "title",
          "type": "string"
        },
        {
          "indexed": false,
          "internalType": "string",
          "name": "hash",
          "type": "string"
        },
        {
          "indexed": false,
          "internalType": "bool",
          "name": "published",
          "type": "bool"
        }
      ],
      "name": "PostUpdated",
      "type": "event"
    },
    {
      "inputs": [
        {
          "internalType": "string",
          "name": "title",
          "type": "string"
        },
        {
          "internalType": "string",
          "name": "hash",
          "type": "string"
        }
      ],
      "name": "createPost",
      "outputs": [],
      "stateMutability": "nonpayable",
      "type": "function"
    },
    {
      "inputs": [
        {
          "internalType": "string",
          "name": "hash",
          "type": "string"
        }
      ],
      "name": "fetchPost",
      "outputs": [
        {
          "components": [
            {
              "internalType": "uint256",
              "name": "id",
              "type": "uint256"
            },
            {
              "internalType": "string",
              "name": "title",
              "type": "string"
            },
            {
              "internalType": "string",
              "name": "content",
              "type": "string"
            },
            {
              "internalType": "bool",
              "name": "published",
              "type": "bool"
            }
          ],
          "internalType": "struct Blog.Post",
          "name": "",
          "type": "tuple"
        }
      ],
      "stateMutability": "view",
      "type": "function"
    },
    {
      "inputs": [],
      "name": "fetchPosts",
      "outputs": [
        {
          "components": [
            {
              "internalType": "uint256",
              "name": "id",
              "type": "uint256"
            },
            {
              "internalType": "string",
              "name": "title",
              "type": "string"
            },
            {
              "internalType": "string",
              "name": "content",
              "type": "string"
            },
            {
              "internalType": "bool",
              "name": "published",
              "type": "bool"
            }
          ],
          "internalType": "struct Blog.Post[]",
          "name": "",
          "type": "tuple[]"
        }
      ],
      "stateMutability": "view",
      "type": "function"
    },
    {
      "inputs": [],
      "name": "name",
      "outputs": [
        {
          "internalType": "string",
          "name": "",
          "type": "string"
        }
      ],
      "stateMutability": "view",
      "type": "function"
    },
    {
      "inputs": [],
      "name": "owner",
      "outputs": [
        {
          "internalType": "address",
          "name": "",
          "type": "address"
        }
      ],
      "stateMutability": "view",
      "type": "function"
    },
    {
      "inputs": [
        {
          "internalType": "address",
          "name": "newOwner",
          "type": "address"
        }
      ],
      "name": "transferOwnership",
      "outputs": [],
      "stateMutability": "nonpayable",
      "type": "function"
    },
    {
      "inputs": [
        {
          "internalType": "string",
          "name": "_name",
          "type": "string"
        }
      ],
      "name": "updateName",
      "outputs": [],
      "stateMutability": "nonpayable",
      "type": "function"
    },
    {
      "inputs": [
        {
          "internalType": "uint256",
          "name": "postId",
          "type": "uint256"
        },
        {
          "internalType": "string",
          "name": "title",
          "type": "string"
        },
        {
          "internalType": "string",
          "name": "hash",
          "type": "string"
        },
        {
          "internalType": "bool",
          "name": "published",
          "type": "bool"
        }
      ],
      "name": "updatePost",
      "outputs": [],
      "stateMutability": "nonpayable",
      "type": "function"
    }
  ],
  "bytecode": {
    "object": "0x60806040523480156200001157600080fd5b506040516200118338038062001183833981016040819052620000349162000072565b6000620000428282620001d6565b5050600180546001600160a01b03191633179055620002a2565b634e487b7160e01b600052604160045260246000fd5b600060208083850312156200008657600080fd5b82516001600160401b03808211156200009e57600080fd5b818501915085601f830112620000b357600080fd5b815181811115620000c857620000c86200005c565b604051601f8201601f19908116603f01168101908382118183101715620000f357620000f36200005c565b8160405282815288868487010111156200010c57600080fd5b600093505b8284101562000130578484018601518185018701529285019262000111565b600086848301015280965050505050505092915050565b600181811c908216806200015c57607f821691505b6020821081036200017d57634e487b7160e01b600052602260045260246000fd5b50919050565b601f821115620001d157600081815260208120601f850160051c81016020861015620001ac5750805b601f850160051c820191505b81811015620001cd57828155600101620001b8565b5050505b505050565b81516001600160401b03811115620001f257620001f26200005c565b6200020a8162000203845462000147565b8462000183565b602080601f831160018114620002425760008415620002295750858301515b600019600386901b1c1916600185901b178555620001cd565b600085815260208120601f198616915b82811015620002735788860151825594840194600190910190840162000252565b5085821015620002925787850151600019600388901b60f8161c191681555b5050505050600190811b01905550565b610ed180620002b26000396000f3fe608060405234801561001057600080fd5b50600436106100885760003560e01c80638da5cb5b1161005b5780638da5cb5b146100f3578063abaddd7f1461011e578063cd349fe914610133578063f2fde38b1461014657600080fd5b806306fdde031461008d578063392338f5146100ab57806344828659146100c057806384da92a7146100e0575b600080fd5b610095610159565b6040516100a291906108b7565b60405180910390f35b6100be6100b9366004610974565b6101e7565b005b6100d36100ce3660046109d8565b6102f6565b6040516100a29190610a66565b6100be6100ee3660046109d8565b610491565b600154610106906001600160a01b031681565b6040516001600160a01b0390911681526020016100a2565b6101266104a1565b6040516100a29190610a79565b6100be610141366004610adb565b6106da565b6100be610154366004610b60565b61082e565b6000805461016690610b89565b80601f016020809104026020016040519081016040528092919081815260200182805461019290610b89565b80156101df5780601f106101b4576101008083540402835291602001916101df565b820191906000526020600020905b8154815290600101906020018083116101c257829003601f168201915b505050505081565b6001546001600160a01b031633146101fe57600080fd5b60025461020c906001610bd9565b60028190556000818152600360205260409020908155600181016102308482610c41565b5060038101805460ff191660011790556002810161024e8382610c41565b50806004836040516102609190610d01565b9081526040519081900360200190208154815560018082019061028590840182610d1d565b5060028181019061029890840182610d1d565b506003918201549101805460ff191660ff90921615159190911790556002546040517fe6851f0b99a9d86e5d68a97f65218980851216ce297f789c6b6b7e82ca1d90c8916102e99186908690610df8565b60405180910390a1505050565b61032360405180608001604052806000815260200160608152602001606081526020016000151581525090565b6004826040516103339190610d01565b90815260200160405180910390206040518060800160405290816000820154815260200160018201805461036690610b89565b80601f016020809104026020016040519081016040528092919081815260200182805461039290610b89565b80156103df5780601f106103b4576101008083540402835291602001916103df565b820191906000526020600020905b8154815290600101906020018083116103c257829003601f168201915b505050505081526020016002820180546103f890610b89565b80601f016020809104026020016040519081016040528092919081815260200182805461042490610b89565b80156104715780601f1061044657610100808354040283529160200191610471565b820191906000526020600020905b81548152906001019060200180831161045457829003601f168201915b50505091835250506003919091015460ff16151560209091015292915050565b600061049d8282610c41565b5050565b60025460609060008167ffffffffffffffff8111156104c2576104c26108d1565b60405190808252806020026020018201604052801561052057816020015b61050d60405180608001604052806000815260200160608152602001606081526020016000151581525090565b8152602001906001900390816104e05790505b50905060005b828110156106d357600061053b826001610bd9565b90506000600360008381526020019081526020016000209050806040518060800160405290816000820154815260200160018201805461057a90610b89565b80601f01602080910402602001604051908101604052809291908181526020018280546105a690610b89565b80156105f35780601f106105c8576101008083540402835291602001916105f3565b820191906000526020600020905b8154815290600101906020018083116105d657829003601f168201915b5050505050815260200160028201805461060c90610b89565b80601f016020809104026020016040519081016040528092919081815260200182805461063890610b89565b80156106855780601f1061065a57610100808354040283529160200191610685565b820191906000526020600020905b81548152906001019060200180831161066857829003601f168201915b50505091835250506003919091015460ff16151560209091015284518590859081106106b3576106b3610e2d565b6020026020010181905250505080806106cb90610e43565b915050610526565b5092915050565b6001546001600160a01b031633146106f157600080fd5b60008481526003602052604090206001810161070d8582610c41565b5060038101805460ff19168315151790556002810161072c8482610c41565b50600085815260036020526040902081548155819060018082019061075390840182610d1d565b5060028181019061076690840182610d1d565b506003918201549101805460ff191660ff90921615159190911790556040518190600490610795908690610d01565b908152604051908190036020019020815481556001808201906107ba90840182610d1d565b506002818101906107cd90840182610d1d565b506003918201549101805460ff191660ff909216151591909117905580546040517f9f8eb93fc073102bbd3072664634ab200707a4f11d94aace9cc8d0e4d019eff59161081f91879087908790610e5c565b60405180910390a15050505050565b6001546001600160a01b0316331461084557600080fd5b600180546001600160a01b0319166001600160a01b0392909216919091179055565b60005b8381101561088257818101518382015260200161086a565b50506000910152565b600081518084526108a3816020860160208601610867565b601f01601f19169290920160200192915050565b6020815260006108ca602083018461088b565b9392505050565b634e487b7160e01b600052604160045260246000fd5b600082601f8301126108f857600080fd5b813567ffffffffffffffff80821115610913576109136108d1565b604051601f8301601f19908116603f0116810190828211818310171561093b5761093b6108d1565b8160405283815286602085880101111561095457600080fd5b836020870160208301376000602085830101528094505050505092915050565b6000806040838503121561098757600080fd5b823567ffffffffffffffff8082111561099f57600080fd5b6109ab868387016108e7565b935060208501359150808211156109c157600080fd5b506109ce858286016108e7565b9150509250929050565b6000602082840312156109ea57600080fd5b813567ffffffffffffffff811115610a0157600080fd5b610a0d848285016108e7565b949350505050565b805182526000602082015160806020850152610a34608085018261088b565b905060408301518482036040860152610a4d828261088b565b9150506060830151151560608501528091505092915050565b6020815260006108ca6020830184610a15565b6000602080830181845280855180835260408601915060408160051b870101925083870160005b82811015610ace57603f19888603018452610abc858351610a15565b94509285019290850190600101610aa0565b5092979650505050505050565b60008060008060808587031215610af157600080fd5b84359350602085013567ffffffffffffffff80821115610b1057600080fd5b610b1c888389016108e7565b94506040870135915080821115610b3257600080fd5b50610b3f878288016108e7565b92505060608501358015158114610b5557600080fd5b939692955090935050565b600060208284031215610b7257600080fd5b81356001600160a01b03811681146108ca57600080fd5b600181811c90821680610b9d57607f821691505b602082108103610bbd57634e487b7160e01b600052602260045260246000fd5b50919050565b634e487b7160e01b600052601160045260246000fd5b80820180821115610bec57610bec610bc3565b92915050565b601f821115610c3c57600081815260208120601f850160051c81016020861015610c195750805b601f850160051c820191505b81811015610c3857828155600101610c25565b5050505b505050565b815167ffffffffffffffff811115610c5b57610c5b6108d1565b610c6f81610c698454610b89565b84610bf2565b602080601f831160018114610ca45760008415610c8c5750858301515b600019600386901b1c1916600185901b178555610c38565b600085815260208120601f198616915b82811015610cd357888601518255948401946001909101908401610cb4565b5085821015610cf15787850151600019600388901b60f8161c191681555b5050505050600190811b01905550565b60008251610d13818460208701610867565b9190910192915050565b818103610d28575050565b610d328254610b89565b67ffffffffffffffff811115610d4a57610d4a6108d1565b610d5881610c698454610b89565b6000601f821160018114610d8c5760008315610d745750848201545b600019600385901b1c1916600184901b178455610df1565b600085815260209020601f19841690600086815260209020845b83811015610dc65782860154825560019586019590910190602001610da6565b5085831015610de45781850154600019600388901b60f8161c191681555b50505060018360011b0184555b5050505050565b838152606060208201526000610e11606083018561088b565b8281036040840152610e23818561088b565b9695505050505050565b634e487b7160e01b600052603260045260246000fd5b600060018201610e5557610e55610bc3565b5060010190565b848152608060208201526000610e75608083018661088b565b8281036040840152610e87818661088b565b91505082151560608301529594505050505056fea2646970667358221220aa7291deba019bd60ba22c9b76c335eef665b7603c798f92cb0faca0b67f887b64736f6c63430008130033",
    "linkReferences": {}
  },
  "methodIdentifiers": {
    "createPost(string,string)": "392338f5",
    "fetchPost(string)": "44828659",
    "fetchPosts()": "abaddd7f",
    "name()": "06fdde03",
    "owner()": "8da5cb5b",
    "transferOwnership(address)": "f2fde38b",
    "updateName(string)": "84da92a7",
    "updatePost(uint256,string,string,bool)": "cd349fe9"
  },
  "id": 31
}