{
  "abi": [
    {
      "inputs": [],
      "stateMutability": "nonpayable",
      "type": "constructor"
    },
    {
      "anonymous": false,
      "inputs": [
        {
          "indexed": true,
          "internalType": "address",
          "name": "owner",
          "type": "address"
        },
        {
          "indexed": true,
          "internalType": "address",
          "name": "approved",
          "type": "address"
        },
        {
          "indexed": true,
          "internalType": "uint256",
          "name": "tokenId",
          "type": "uint256"
        }
      ],
      "name": "Approval",
      "type": "event"
    },
    {
      "anonymous": false,
      "inputs": [
        {
          "indexed": true,
          "internalType": "address",
          "name": "owner",
          "type": "address"
        },
        {
          "indexed": true,
          "internalType": "address",
          "name": "operator",
          "type": "address"
        },
        {
          "indexed": false,
          "internalType": "bool",
          "name": "approved",
          "type": "bool"
        }
      ],
      "name": "ApprovalForAll",
      "type": "event"
    },
    {
      "anonymous": false,
      "inputs": [
        {
          "indexed": true,
          "internalType": "address",
          "name": "from",
          "type": "address"
        },
        {
          "indexed": true,
          "internalType": "address",
          "name": "to",
          "type": "address"
        },
        {
          "indexed": true,
          "internalType": "uint256",
          "name": "tokenId",
          "type": "uint256"
        }
      ],
      "name": "Transfer",
      "type": "event"
    },
    {
      "inputs": [
        {
          "internalType": "address",
          "name": "to",
          "type": "address"
        },
        {
          "internalType": "uint256",
          "name": "tokenId",
          "type": "uint256"
        }
      ],
      "name": "approve",
      "outputs": [],
      "stateMutability": "nonpayable",
      "type": "function"
    },
    {
      "inputs": [
        {
          "internalType": "address",
          "name": "owner",
          "type": "address"
        }
      ],
      "name": "balanceOf",
      "outputs": [
        {
          "internalType": "uint256",
          "name": "",
          "type": "uint256"
        }
      ],
      "stateMutability": "view",
      "type": "function"
    },
    {
      "inputs": [],
      "name": "collectionName",
      "outputs": [
        {
          "internalType": "string",
          "name": "",
          "type": "string"
        }
      ],
      "stateMutability": "view",
      "type": "function"
    },
    {
      "inputs": [],
      "name": "collectionSymbol",
      "outputs": [
        {
          "internalType": "string",
          "name": "",
          "type": "string"
        }
      ],
      "stateMutability": "view",
      "type": "function"
    },
    {
      "inputs": [],
      "name": "createEternalNFT",
      "outputs": [
        {
          "internalType": "uint256",
          "name": "",
          "type": "uint256"
        }
      ],
      "stateMutability": "nonpayable",
      "type": "function"
    },
    {
      "inputs": [
        {
          "internalType": "uint256",
          "name": "tokenId",
          "type": "uint256"
        }
      ],
      "name": "getApproved",
      "outputs": [
        {
          "internalType": "address",
          "name": "",
          "type": "address"
        }
      ],
      "stateMutability": "view",
      "type": "function"
    },
    {
      "inputs": [
        {
          "internalType": "address",
          "name": "owner",
          "type": "address"
        },
        {
          "internalType": "address",
          "name": "operator",
          "type": "address"
        }
      ],
      "name": "isApprovedForAll",
      "outputs": [
        {
          "internalType": "bool",
          "name": "",
          "type": "bool"
        }
      ],
      "stateMutability": "view",
      "type": "function"
    },
    {
      "inputs": [],
      "name": "name",
      "outputs": [
        {
          "internalType": "string",
          "name": "",
          "type": "string"
        }
      ],
      "stateMutability": "view",
      "type": "function"
    },
    {
      "inputs": [
        {
          "internalType": "uint256",
          "name": "tokenId",
          "type": "uint256"
        }
      ],
      "name": "ownerOf",
      "outputs": [
        {
          "internalType": "address",
          "name": "",
          "type": "address"
        }
      ],
      "stateMutability": "view",
      "type": "function"
    },
    {
      "inputs": [
        {
          "internalType": "uint256",
          "name": "tokenId",
          "type": "uint256"
        }
      ],
      "name": "pickFirstWord",
      "outputs": [
        {
          "internalType": "string",
          "name": "",
          "type": "string"
        }
      ],
      "stateMutability": "view",
      "type": "function"
    },
    {
      "inputs": [
        {
          "internalType": "uint256",
          "name": "tokenId",
          "type": "uint256"
        }
      ],
      "name": "pickSecondWord",
      "outputs": [
        {
          "internalType": "string",
          "name": "",
          "type": "string"
        }
      ],
      "stateMutability": "view",
      "type": "function"
    },
    {
      "inputs": [
        {
          "internalType": "uint256",
          "name": "tokenId",
          "type": "uint256"
        }
      ],
      "name": "pickThirdWord",
      "outputs": [
        {
          "internalType": "string",
          "name": "",
          "type": "string"
        }
      ],
      "stateMutability": "view",
      "type": "function"
    },
    {
      "inputs": [
        {
          "internalType": "address",
          "name": "from",
          "type": "address"
        },
        {
          "internalType": "address",
          "name": "to",
          "type": "address"
        },
        {
          "internalType": "uint256",
          "name": "tokenId",
          "type": "uint256"
        }
      ],
      "name": "safeTransferFrom",
      "outputs": [],
      "stateMutability": "nonpayable",
      "type": "function"
    },
    {
      "inputs": [
        {
          "internalType": "address",
          "name": "from",
          "type": "address"
        },
        {
          "internalType": "address",
          "name": "to",
          "type": "address"
        },
        {
          "internalType": "uint256",
          "name": "tokenId",
          "type": "uint256"
        },
        {
          "internalType": "bytes",
          "name": "data",
          "type": "bytes"
        }
      ],
      "name": "safeTransferFrom",
      "outputs": [],
      "stateMutability": "nonpayable",
      "type": "function"
    },
    {
      "inputs": [
        {
          "internalType": "address",
          "name": "operator",
          "type": "address"
        },
        {
          "internalType": "bool",
          "name": "approved",
          "type": "bool"
        }
      ],
      "name": "setApprovalForAll",
      "outputs": [],
      "stateMutability": "nonpayable",
      "type": "function"
    },
    {
      "inputs": [
        {
          "internalType": "bytes4",
          "name": "interfaceId",
          "type": "bytes4"
        }
      ],
      "name": "supportsInterface",
      "outputs": [
        {
          "internalType": "bool",
          "name": "",
          "type": "bool"
        }
      ],
      "stateMutability": "view",
      "type": "function"
    },
    {
      "inputs": [],
      "name": "symbol",
      "outputs": [
        {
          "internalType": "string",
          "name": "",
          "type": "string"
        }
      ],
      "stateMutability": "view",
      "type": "function"
    },
    {
      "inputs": [
        {
          "internalType": "uint256",
          "name": "tokenId",
          "type": "uint256"
        }
      ],
      "name": "tokenURI",
      "outputs": [
        {
          "internalType": "string",
          "name": "",
          "type": "string"
        }
      ],
      "stateMutability": "view",
      "type": "function"
    },
    {
      "inputs": [
        {
          "internalType": "address",
          "name": "from",
          "type": "address"
        },
        {
          "internalType": "address",
          "name": "to",
          "type": "address"
        },
        {
          "internalType": "uint256",
          "name": "tokenId",
          "type": "uint256"
        }
      ],
      "name": "transferFrom",
      "outputs": [],
      "stateMutability": "nonpayable",
      "type": "function"
    }
  ],
  "bytecode": {
    "object": "0x61014060405260846080818152906200219660a039600a906200002390826200060d565b506040518060e00160405280604051806040016040528060048152602001634669726560e01b81525081526020016040518060400160405280600481526020016315da5b9960e21b8152508152602001604051806040016040528060048152602001635761766560e01b81525081526020016040518060400160405280600581526020016408ac2e4e8d60db1b8152508152602001604051806040016040528060078152602001662a343ab73232b960c91b815250815260200160405180604001604052806005815260200164537061636560d81b81525081526020016040518060400160405280600481526020016354696d6560e01b815250815250600b9060076200013292919062000491565b506040518060e001604052806040518060400160405280600581526020016414dddbdc9960da1b81525081526020016040518060400160405280600581526020016429b832b0b960d91b81525081526020016040518060400160405280600681526020016514da1a595b1960d21b8152508152602001604051806040016040528060068152602001652430b6b6b2b960d11b81525081526020016040518060400160405280600581526020016429b0b132b960d91b81525081526020016040518060400160405280600381526020016241786560e81b815250815260200160405180604001604052806003815260200162426f7760e81b815250815250600c9060076200024192919062000491565b506040805161012081018252600460e0820181815263131bdc9960e21b610100840152825282518084018452908152634b696e6760e01b602082810191909152808301919091528251808401845260078082526622b6b832b937b960c91b828401528385019190915283518085018552600981526856656e657261626c6560b81b81840152606084015283518085018552600881526720b731b2b9ba37b960c11b81840152608084015283518085018552600581526414d85a5b9d60da1b8184015260a08401528351808501909452600384526211dbd960ea1b9184019190915260c08201929092526200033991600d919062000491565b503480156200034757600080fd5b506040518060400160405280600a815260200169115d195c9b985b13919560b21b815250604051806040016040528060048152602001631153919560e21b81525081600090816200039991906200060d565b506001620003a882826200060d565b50620003b6915050620003e6565b600890620003c590826200060d565b50620003d062000480565b600990620003df90826200060d565b50620006d9565b606060008054620003f7906200057e565b80601f016020809104026020016040519081016040528092919081815260200182805462000425906200057e565b8015620004765780601f106200044a5761010080835404028352916020019162000476565b820191906000526020600020905b8154815290600101906020018083116200045857829003601f168201915b5050505050905090565b606060018054620003f7906200057e565b828054828255906000526020600020908101928215620004dc579160200282015b82811115620004dc5782518290620004cb90826200060d565b5091602001919060010190620004b2565b50620004ea929150620004ee565b5090565b80821115620004ea5760006200050582826200050f565b50600101620004ee565b5080546200051d906200057e565b6000825580601f106200052e575050565b601f0160209004906000526020600020908101906200054e919062000551565b50565b5b80821115620004ea576000815560010162000552565b634e487b7160e01b600052604160045260246000fd5b600181811c908216806200059357607f821691505b602082108103620005b457634e487b7160e01b600052602260045260246000fd5b50919050565b601f8211156200060857600081815260208120601f850160051c81016020861015620005e35750805b601f850160051c820191505b818110156200060457828155600101620005ef565b5050505b505050565b81516001600160401b0381111562000629576200062962000568565b62000641816200063a84546200057e565b84620005ba565b602080601f831160018114620006795760008415620006605750858301515b600019600386901b1c1916600185901b17855562000604565b600085815260208120601f198616915b82811015620006aa5788860151825594840194600190910190840162000689565b5085821015620006c95787850151600019600388901b60f8161c191681555b5050505050600190811b01905550565b611aad80620006e96000396000f3fe608060405234801561001057600080fd5b50600436106101215760003560e01c80636352211e116100ad578063c630338611610071578063c63033861461024e578063c87b56dd14610261578063e2d2c30814610274578063e5326ab114610287578063e985e9c51461028f57600080fd5b80636352211e146101fa57806370a082311461020d57806395d89b4114610220578063a22cb46514610228578063b88d4fde1461023b57600080fd5b806323b872dd116100f457806323b872dd146101a35780632f39352a146101b65780633330880e146101be5780633bad0d36146101d457806342842e0e146101e757600080fd5b806301ffc9a71461012657806306fdde031461014e578063081812fc14610163578063095ea7b31461018e575b600080fd5b610139610134366004611395565b6102cb565b60405190151581526020015b60405180910390f35b61015661031d565b6040516101459190611402565b610176610171366004611415565b6103af565b6040516001600160a01b039091168152602001610145565b6101a161019c36600461144a565b6103d6565b005b6101a16101b1366004611474565b6104f0565b610156610521565b6101c66105af565b604051908152602001610145565b6101566101e2366004611415565b61065e565b6101a16101f5366004611474565b610752565b610176610208366004611415565b61076d565b6101c661021b3660046114b0565b6107cd565b610156610853565b6101a16102363660046114cb565b610862565b6101a161024936600461151d565b610871565b61015661025c366004611415565b6108a9565b61015661026f366004611415565b6108ee565b610156610282366004611415565b6109fe565b610156610a43565b61013961029d3660046115f9565b6001600160a01b03918216600090815260056020908152604080832093909416825291909152205460ff1690565b60006001600160e01b031982166380ac58cd60e01b14806102fc57506001600160e01b03198216635b5e139f60e01b145b8061031757506301ffc9a760e01b6001600160e01b03198316145b92915050565b60606000805461032c9061162c565b80601f01602080910402602001604051908101604052809291908181526020018280546103589061162c565b80156103a55780601f1061037a576101008083540402835291602001916103a5565b820191906000526020600020905b81548152906001019060200180831161038857829003601f168201915b5050505050905090565b60006103ba82610a50565b506000908152600460205260409020546001600160a01b031690565b60006103e18261076d565b9050806001600160a01b0316836001600160a01b0316036104535760405162461bcd60e51b815260206004820152602160248201527f4552433732313a20617070726f76616c20746f2063757272656e74206f776e656044820152603960f91b60648201526084015b60405180910390fd5b336001600160a01b038216148061046f575061046f813361029d565b6104e15760405162461bcd60e51b815260206004820152603d60248201527f4552433732313a20617070726f76652063616c6c6572206973206e6f7420746f60448201527f6b656e206f776e6572206f7220617070726f76656420666f7220616c6c000000606482015260840161044a565b6104eb8383610ab2565b505050565b6104fa3382610b20565b6105165760405162461bcd60e51b815260040161044a90611666565b6104eb838383610b9e565b6009805461052e9061162c565b80601f016020809104026020016040519081016040528092919081815260200182805461055a9061162c565b80156105a75780601f1061057c576101008083540402835291602001916105a7565b820191906000526020600020905b81548152906001019060200180831161058a57829003601f168201915b505050505081565b6000806105bb60075490565b905060006105c88261065e565b905060006105d5836108a9565b905060006105e2846109fe565b905060008383836040516020016105fb939291906116b3565b60405160208183030381529060405290506000600a60405160200161062091906116f6565b604051602081830303815290604052905061063b3387610d02565b6106458682610d1c565b610653600780546001019055565b509395945050505050565b6060600061069261066e84610daf565b60405160200161067e919061176c565b604051602081830303815290604052610e42565b600b549091506106a2908261179b565b9050600b81815481106106b7576106b76117bd565b9060005260206000200180546106cc9061162c565b80601f01602080910402602001604051908101604052809291908181526020018280546106f89061162c565b80156107455780601f1061071a57610100808354040283529160200191610745565b820191906000526020600020905b81548152906001019060200180831161072857829003601f168201915b5050505050915050919050565b6104eb83838360405180602001604052806000815250610871565b6000818152600260205260408120546001600160a01b0316806103175760405162461bcd60e51b8152602060048201526018602482015277115490cdcc8c4e881a5b9d985b1a59081d1bdad95b88125160421b604482015260640161044a565b60006001600160a01b0382166108375760405162461bcd60e51b815260206004820152602960248201527f4552433732313a2061646472657373207a65726f206973206e6f7420612076616044820152683634b21037bbb732b960b91b606482015260840161044a565b506001600160a01b031660009081526003602052604090205490565b60606001805461032c9061162c565b61086d338383610e73565b5050565b61087b3383610b20565b6108975760405162461bcd60e51b815260040161044a90611666565b6108a384848484610f41565b50505050565b606060006108c96108b984610daf565b60405160200161067e91906117d3565b600c549091506108d9908261179b565b9050600c81815481106106b7576106b76117bd565b60606108f982610a50565b600082815260066020526040812080546109129061162c565b80601f016020809104026020016040519081016040528092919081815260200182805461093e9061162c565b801561098b5780601f106109605761010080835404028352916020019161098b565b820191906000526020600020905b81548152906001019060200180831161096e57829003601f168201915b5050505050905060006109a960408051602081019091526000815290565b905080516000036109bb575092915050565b8151156109ed5780826040516020016109d5929190611801565b60405160208183030381529060405292505050919050565b6109f684610f74565b949350505050565b60606000610a1e610a0e84610daf565b60405160200161067e9190611830565b600d54909150610a2e908261179b565b9050600d81815481106106b7576106b76117bd565b6008805461052e9061162c565b6000818152600260205260409020546001600160a01b0316610aaf5760405162461bcd60e51b8152602060048201526018602482015277115490cdcc8c4e881a5b9d985b1a59081d1bdad95b88125160421b604482015260640161044a565b50565b600081815260046020526040902080546001600160a01b0319166001600160a01b0384169081179091558190610ae78261076d565b6001600160a01b03167f8c5be1e5ebec7d5bd14f71427d1e84f3dd0314c0f7b2291e5b200ac8c7c3b92560405160405180910390a45050565b600080610b2c8361076d565b9050806001600160a01b0316846001600160a01b03161480610b7357506001600160a01b0380821660009081526005602090815260408083209388168352929052205460ff165b806109f65750836001600160a01b0316610b8c846103af565b6001600160a01b031614949350505050565b826001600160a01b0316610bb18261076d565b6001600160a01b031614610bd75760405162461bcd60e51b815260040161044a9061185c565b6001600160a01b038216610c395760405162461bcd60e51b8152602060048201526024808201527f4552433732313a207472616e7366657220746f20746865207a65726f206164646044820152637265737360e01b606482015260840161044a565b826001600160a01b0316610c4c8261076d565b6001600160a01b031614610c725760405162461bcd60e51b815260040161044a9061185c565b600081815260046020908152604080832080546001600160a01b03199081169091556001600160a01b0387811680865260038552838620805460001901905590871680865283862080546001019055868652600290945282852080549092168417909155905184937fddf252ad1be2c89b69c2b068fc378daa952ba7f163c4a11628f55a4df523b3ef91a4505050565b61086d828260405180602001604052806000815250610fe8565b6000828152600260205260409020546001600160a01b0316610d975760405162461bcd60e51b815260206004820152602e60248201527f45524337323155524953746f726167653a2055524920736574206f66206e6f6e60448201526d32bc34b9ba32b73a103a37b5b2b760911b606482015260840161044a565b60008281526006602052604090206104eb82826118ef565b60606000610dbc8361101b565b600101905060008167ffffffffffffffff811115610ddc57610ddc611507565b6040519080825280601f01601f191660200182016040528015610e06576020820181803683370190505b5090508181016020015b600019016f181899199a1a9b1b9c1cb0b131b232b360811b600a86061a8153600a8504945084610e1057509392505050565b600081604051602001610e5591906119af565b60408051601f19818403018152919052805160209091012092915050565b816001600160a01b0316836001600160a01b031603610ed45760405162461bcd60e51b815260206004820152601960248201527f4552433732313a20617070726f766520746f2063616c6c657200000000000000604482015260640161044a565b6001600160a01b03838116600081815260056020908152604080832094871680845294825291829020805460ff191686151590811790915591519182527f17307eab39ab6107e8899845ad3d59bd9653f200f220920489ca2b5937696c31910160405180910390a3505050565b610f4c848484610b9e565b610f58848484846110f3565b6108a35760405162461bcd60e51b815260040161044a906119cb565b6060610f7f82610a50565b6000610f9660408051602081019091526000815290565b90506000815111610fb65760405180602001604052806000815250610fe1565b80610fc084610daf565b604051602001610fd1929190611801565b6040516020818303038152906040525b9392505050565b610ff283836111f4565b610fff60008484846110f3565b6104eb5760405162461bcd60e51b815260040161044a906119cb565b60008072184f03e93ff9f4daa797ed6e38ed64bf6a1f0160401b831061105a5772184f03e93ff9f4daa797ed6e38ed64bf6a1f0160401b830492506040015b6d04ee2d6d415b85acef81000000008310611086576d04ee2d6d415b85acef8100000000830492506020015b662386f26fc1000083106110a457662386f26fc10000830492506010015b6305f5e10083106110bc576305f5e100830492506008015b61271083106110d057612710830492506004015b606483106110e2576064830492506002015b600a83106103175760010192915050565b60006001600160a01b0384163b156111e957604051630a85bd0160e11b81526001600160a01b0385169063150b7a0290611137903390899088908890600401611a1d565b6020604051808303816000875af1925050508015611172575060408051601f3d908101601f1916820190925261116f91810190611a5a565b60015b6111cf573d8080156111a0576040519150601f19603f3d011682016040523d82523d6000602084013e6111a5565b606091505b5080516000036111c75760405162461bcd60e51b815260040161044a906119cb565b805181602001fd5b6001600160e01b031916630a85bd0160e11b1490506109f6565b506001949350505050565b6001600160a01b03821661124a5760405162461bcd60e51b815260206004820181905260248201527f4552433732313a206d696e7420746f20746865207a65726f2061646472657373604482015260640161044a565b6000818152600260205260409020546001600160a01b0316156112af5760405162461bcd60e51b815260206004820152601c60248201527f4552433732313a20746f6b656e20616c7265616479206d696e74656400000000604482015260640161044a565b6000818152600260205260409020546001600160a01b0316156113145760405162461bcd60e51b815260206004820152601c60248201527f4552433732313a20746f6b656e20616c7265616479206d696e74656400000000604482015260640161044a565b6001600160a01b038216600081815260036020908152604080832080546001019055848352600290915280822080546001600160a01b0319168417905551839291907fddf252ad1be2c89b69c2b068fc378daa952ba7f163c4a11628f55a4df523b3ef908290a45050565b6001600160e01b031981168114610aaf57600080fd5b6000602082840312156113a757600080fd5b8135610fe18161137f565b60005b838110156113cd5781810151838201526020016113b5565b50506000910152565b600081518084526113ee8160208601602086016113b2565b601f01601f19169290920160200192915050565b602081526000610fe160208301846113d6565b60006020828403121561142757600080fd5b5035919050565b80356001600160a01b038116811461144557600080fd5b919050565b6000806040838503121561145d57600080fd5b6114668361142e565b946020939093013593505050565b60008060006060848603121561148957600080fd5b6114928461142e565b92506114a06020850161142e565b9150604084013590509250925092565b6000602082840312156114c257600080fd5b610fe18261142e565b600080604083850312156114de57600080fd5b6114e78361142e565b9150602083013580151581146114fc57600080fd5b809150509250929050565b634e487b7160e01b600052604160045260246000fd5b6000806000806080858703121561153357600080fd5b61153c8561142e565b935061154a6020860161142e565b925060408501359150606085013567ffffffffffffffff8082111561156e57600080fd5b818701915087601f83011261158257600080fd5b81358181111561159457611594611507565b604051601f8201601f19908116603f011681019083821181831017156115bc576115bc611507565b816040528281528a60208487010111156115d557600080fd5b82602086016020830137600060208483010152809550505050505092959194509250565b6000806040838503121561160c57600080fd5b6116158361142e565b91506116236020840161142e565b90509250929050565b600181811c9082168061164057607f821691505b60208210810361166057634e487b7160e01b600052602260045260246000fd5b50919050565b6020808252602d908201527f4552433732313a2063616c6c6572206973206e6f7420746f6b656e206f776e6560408201526c1c881bdc88185c1c1c9bdd9959609a1b606082015260800190565b600084516116c58184602089016113b2565b8451908301906116d98183602089016113b2565b84519101906116ec8183602088016113b2565b0195945050505050565b60008083546117048161162c565b6001828116801561171c576001811461173157611760565b60ff1984168752821515830287019450611760565b8760005260208060002060005b858110156117575781548a82015290840190820161173e565b50505082870194505b50929695505050505050565b66195b195b595b9d60ca1b81526000825161178e8160078501602087016113b2565b9190910160070192915050565b6000826117b857634e487b7160e01b600052601260045260246000fd5b500690565b634e487b7160e01b600052603260045260246000fd5b653bb2b0b837b760d11b8152600082516117f48160068501602087016113b2565b9190910160060192915050565b600083516118138184602088016113b2565b8351908301906118278183602088016113b2565b01949350505050565b6372616e6b60e01b81526000825161184f8160048501602087016113b2565b9190910160040192915050565b60208082526025908201527f4552433732313a207472616e736665722066726f6d20696e636f72726563742060408201526437bbb732b960d91b606082015260800190565b601f8211156104eb57600081815260208120601f850160051c810160208610156118c85750805b601f850160051c820191505b818110156118e7578281556001016118d4565b505050505050565b815167ffffffffffffffff81111561190957611909611507565b61191d81611917845461162c565b846118a1565b602080601f831160018114611952576000841561193a5750858301515b600019600386901b1c1916600185901b1785556118e7565b600085815260208120601f198616915b8281101561198157888601518255948401946001909101908401611962565b508582101561199f5787850151600019600388901b60f8161c191681555b5050505050600190811b01905550565b600082516119c18184602087016113b2565b9190910192915050565b60208082526032908201527f4552433732313a207472616e7366657220746f206e6f6e20455243373231526560408201527131b2b4bb32b91034b6b83632b6b2b73a32b960711b606082015260800190565b6001600160a01b0385811682528416602082015260408101839052608060608201819052600090611a50908301846113d6565b9695505050505050565b600060208284031215611a6c57600080fd5b8151610fe18161137f56fea26469706673582212209e0b90911bb8cee058861cbc77c96fe4b217770ca59e715d4474e88ae60bea9064736f6c6343000813003368747470733a2f2f656e637279707465642d74626e302e677374617469632e636f6d2f696d616765733f713d74626e3a414e64394763533232696c4a4772507632576554505f5843695542464341334d3977367132632d6b5f724f4c32495a2d4b3468325466656e3239457a77374b336c31556157636f6237425526757371703d434155",
    "linkReferences": {}
  },
  "methodIdentifiers": {
    "approve(address,uint256)": "095ea7b3",
    "balanceOf(address)": "70a08231",
    "collectionName()": "e5326ab1",
    "collectionSymbol()": "2f39352a",
    "createEternalNFT()": "3330880e",
    "getApproved(uint256)": "081812fc",
    "isApprovedForAll(address,address)": "e985e9c5",
    "name()": "06fdde03",
    "ownerOf(uint256)": "6352211e",
    "pickFirstWord(uint256)": "3bad0d36",
    "pickSecondWord(uint256)": "c6303386",
    "pickThirdWord(uint256)": "e2d2c308",
    "safeTransferFrom(address,address,uint256)": "42842e0e",
    "safeTransferFrom(address,address,uint256,bytes)": "b88d4fde",
    "setApprovalForAll(address,bool)": "a22cb465",
    "supportsInterface(bytes4)": "01ffc9a7",
    "symbol()": "95d89b41",
    "tokenURI(uint256)": "c87b56dd",
    "transferFrom(address,address,uint256)": "23b872dd"
  },
  "id": 31
}